{
  "contractName": "LoyaltyCard",
  "abi": [
    {
      "constant": true,
      "inputs": [
        {
          "name": "",
          "type": "address"
        }
      ],
      "name": "customers",
      "outputs": [
        {
          "name": "account",
          "type": "address"
        },
        {
          "name": "balance",
          "type": "uint256"
        }
      ],
      "payable": false,
      "stateMutability": "view",
      "type": "function",
      "signature": "0x336989ae"
    },
    {
      "constant": true,
      "inputs": [],
      "name": "owner",
      "outputs": [
        {
          "name": "",
          "type": "address"
        }
      ],
      "payable": false,
      "stateMutability": "view",
      "type": "function",
      "signature": "0x8da5cb5b"
    },
    {
      "inputs": [],
      "payable": false,
      "stateMutability": "nonpayable",
      "type": "constructor",
      "signature": "constructor"
    },
    {
      "anonymous": false,
      "inputs": [
        {
          "indexed": false,
          "name": "account",
          "type": "address"
        },
        {
          "indexed": false,
          "name": "balance",
          "type": "uint256"
        }
      ],
      "name": "CustomerAdded",
      "type": "event",
      "signature": "0xb0706ef598fa4e9e7be86bc44c88f81557e98c8fc0904b373d6eb2daa7c49374"
    },
    {
      "anonymous": false,
      "inputs": [
        {
          "indexed": false,
          "name": "account",
          "type": "address"
        },
        {
          "indexed": false,
          "name": "stampIncrement",
          "type": "uint256"
        },
        {
          "indexed": false,
          "name": "newBalance",
          "type": "uint256"
        }
      ],
      "name": "BalanceIncreased",
      "type": "event",
      "signature": "0x85eb640bd9235e6b4fd035f4723cb8305a62054cdb7aaa06e8822876770482de"
    },
    {
      "constant": false,
      "inputs": [
        {
          "name": "account",
          "type": "address"
        },
        {
          "name": "balance",
          "type": "uint256"
        }
      ],
      "name": "addCustomer",
      "outputs": [],
      "payable": false,
      "stateMutability": "nonpayable",
      "type": "function",
      "signature": "0xdedf34f3"
    },
    {
      "constant": false,
      "inputs": [
        {
          "name": "account",
          "type": "address"
        },
        {
          "name": "stampIncrement",
          "type": "uint256"
        }
      ],
      "name": "addStamp",
      "outputs": [],
      "payable": false,
      "stateMutability": "nonpayable",
      "type": "function",
      "signature": "0x066e757a"
    }
  ],
  "bytecode": "0x608060405234801561001057600080fd5b50336000806101000a81548173ffffffffffffffffffffffffffffffffffffffff021916908373ffffffffffffffffffffffffffffffffffffffff16021790555061007f73e04ef06a5652e224ba2e63507bbf474d396967d4600a610084640100000000026401000000009004565b6101ed565b61008c6101bd565b60408051908101604052808473ffffffffffffffffffffffffffffffffffffffff16815260200183815250905080600160008573ffffffffffffffffffffffffffffffffffffffff1673ffffffffffffffffffffffffffffffffffffffff16815260200190815260200160002060008201518160000160006101000a81548173ffffffffffffffffffffffffffffffffffffffff021916908373ffffffffffffffffffffffffffffffffffffffff160217905550602082015181600101559050507fb0706ef598fa4e9e7be86bc44c88f81557e98c8fc0904b373d6eb2daa7c493748383604051808373ffffffffffffffffffffffffffffffffffffffff1673ffffffffffffffffffffffffffffffffffffffff1681526020018281526020019250505060405180910390a1505050565b6040805190810160405280600073ffffffffffffffffffffffffffffffffffffffff168152602001600081525090565b6105de806101fc6000396000f3fe608060405260043610610062576000357c0100000000000000000000000000000000000000000000000000000000900463ffffffff168063066e757a14610067578063336989ae146100c25780638da5cb5b1461015a578063dedf34f3146101b1575b600080fd5b34801561007357600080fd5b506100c06004803603604081101561008a57600080fd5b81019080803573ffffffffffffffffffffffffffffffffffffffff1690602001909291908035906020019092919050505061020c565b005b3480156100ce57600080fd5b50610111600480360360208110156100e557600080fd5b81019080803573ffffffffffffffffffffffffffffffffffffffff1690602001909291905050506103e0565b604051808373ffffffffffffffffffffffffffffffffffffffff1673ffffffffffffffffffffffffffffffffffffffff1681526020018281526020019250505060405180910390f35b34801561016657600080fd5b5061016f610424565b604051808273ffffffffffffffffffffffffffffffffffffffff1673ffffffffffffffffffffffffffffffffffffffff16815260200191505060405180910390f35b3480156101bd57600080fd5b5061020a600480360360408110156101d457600080fd5b81019080803573ffffffffffffffffffffffffffffffffffffffff16906020019092919080359060200190929190505050610449565b005b610214610582565b600160008473ffffffffffffffffffffffffffffffffffffffff1673ffffffffffffffffffffffffffffffffffffffff1681526020019081526020016000206040805190810160405290816000820160009054906101000a900473ffffffffffffffffffffffffffffffffffffffff1673ffffffffffffffffffffffffffffffffffffffff1673ffffffffffffffffffffffffffffffffffffffff16815260200160018201548152505090508181602001818151019150818152505080600160008573ffffffffffffffffffffffffffffffffffffffff1673ffffffffffffffffffffffffffffffffffffffff16815260200190815260200160002060008201518160000160006101000a81548173ffffffffffffffffffffffffffffffffffffffff021916908373ffffffffffffffffffffffffffffffffffffffff160217905550602082015181600101559050507f85eb640bd9235e6b4fd035f4723cb8305a62054cdb7aaa06e8822876770482de83838360200151604051808473ffffffffffffffffffffffffffffffffffffffff1673ffffffffffffffffffffffffffffffffffffffff168152602001838152602001828152602001935050505060405180910390a1505050565b60016020528060005260406000206000915090508060000160009054906101000a900473ffffffffffffffffffffffffffffffffffffffff16908060010154905082565b6000809054906101000a900473ffffffffffffffffffffffffffffffffffffffff1681565b610451610582565b60408051908101604052808473ffffffffffffffffffffffffffffffffffffffff16815260200183815250905080600160008573ffffffffffffffffffffffffffffffffffffffff1673ffffffffffffffffffffffffffffffffffffffff16815260200190815260200160002060008201518160000160006101000a81548173ffffffffffffffffffffffffffffffffffffffff021916908373ffffffffffffffffffffffffffffffffffffffff160217905550602082015181600101559050507fb0706ef598fa4e9e7be86bc44c88f81557e98c8fc0904b373d6eb2daa7c493748383604051808373ffffffffffffffffffffffffffffffffffffffff1673ffffffffffffffffffffffffffffffffffffffff1681526020018281526020019250505060405180910390a1505050565b6040805190810160405280600073ffffffffffffffffffffffffffffffffffffffff16815260200160008152509056fea165627a7a7230582081270702e7e5bbfb061c06309e2ba48aff8a194b424e136c284b052a680ce6710029",
  "source": "pragma solidity ^0.5.0;\n\ncontract LoyaltyCard {\n    address public owner;\n\n    struct Customer {\n        address account;\n        uint256 balance;\n    }\n\n    mapping(address => Customer) public customers;\n\n    constructor() public {\n        owner = msg.sender;\n        addCustomer(0xe04eF06a5652E224Ba2E63507bbf474d396967d4, 10);\n    }\n\n    event CustomerAdded(address account, uint256 balance);\n\n    event BalanceIncreased(\n        address account,\n        uint256 stampIncrement,\n        uint256 newBalance\n    );\n\n    function addCustomer(address account, uint256 balance) public {\n        Customer memory newCustomer = Customer({\n            account: account,\n            balance: balance\n        });\n        customers[account] = newCustomer;\n        emit CustomerAdded(account, balance);\n    }\n\n    function addStamp(address account, uint256 stampIncrement) public {\n        Customer memory customer = customers[account];\n        customer.balance += stampIncrement;\n        customers[account] = customer;\n        emit BalanceIncreased(account, stampIncrement, customer.balance);\n    }\n}\n",
  "sourcePath": "/Users/raymond/Documents/Projects/blockloyalty/src/contracts/LoyaltyCard.sol",
  "compiler": {
    "name": "solc",
    "version": "0.5.0+commit.1d4f565a.Emscripten.clang"
  },
  "schemaVersion": "3.0.1",
  "updatedAt": "2021-06-27T04:43:32.405Z",
  "devdoc": {
    "methods": {}
  },
  "userdoc": {
    "methods": {}
  }
}