{
  "contractName": "LoyaltyCard",
  "abi": [
    {
      "constant": true,
      "inputs": [
        {
          "name": "",
          "type": "address"
        }
      ],
      "name": "customers",
      "outputs": [
        {
          "name": "account",
          "type": "address"
        },
        {
          "name": "balance",
          "type": "uint256"
        }
      ],
      "payable": false,
      "stateMutability": "view",
      "type": "function",
      "signature": "0x336989ae"
    },
    {
      "constant": true,
      "inputs": [],
      "name": "owner",
      "outputs": [
        {
          "name": "",
          "type": "address"
        }
      ],
      "payable": false,
      "stateMutability": "view",
      "type": "function",
      "signature": "0x8da5cb5b"
    },
    {
      "inputs": [],
      "payable": false,
      "stateMutability": "nonpayable",
      "type": "constructor",
      "signature": "constructor"
    },
    {
      "anonymous": false,
      "inputs": [
        {
          "indexed": false,
          "name": "account",
          "type": "address"
        },
        {
          "indexed": false,
          "name": "balance",
          "type": "uint256"
        }
      ],
      "name": "CustomerAdded",
      "type": "event",
      "signature": "0xb0706ef598fa4e9e7be86bc44c88f81557e98c8fc0904b373d6eb2daa7c49374"
    },
    {
      "anonymous": false,
      "inputs": [
        {
          "indexed": false,
          "name": "account",
          "type": "address"
        },
        {
          "indexed": false,
          "name": "stampIncrement",
          "type": "uint256"
        },
        {
          "indexed": false,
          "name": "newBalance",
          "type": "uint256"
        }
      ],
      "name": "BalanceIncreased",
      "type": "event",
      "signature": "0x85eb640bd9235e6b4fd035f4723cb8305a62054cdb7aaa06e8822876770482de"
    },
    {
      "anonymous": false,
      "inputs": [
        {
          "indexed": false,
          "name": "account",
          "type": "address"
        }
      ],
      "name": "StampsRedeemed",
      "type": "event",
      "signature": "0x22232a1b171143fee8214203072f5951ee06201ad76fe75a0709d5846b4fc524"
    },
    {
      "constant": false,
      "inputs": [
        {
          "name": "account",
          "type": "address"
        },
        {
          "name": "balance",
          "type": "uint256"
        }
      ],
      "name": "addCustomer",
      "outputs": [],
      "payable": false,
      "stateMutability": "nonpayable",
      "type": "function",
      "signature": "0xdedf34f3"
    },
    {
      "constant": false,
      "inputs": [
        {
          "name": "account",
          "type": "address"
        },
        {
          "name": "stampIncrement",
          "type": "uint256"
        }
      ],
      "name": "addStamp",
      "outputs": [],
      "payable": false,
      "stateMutability": "nonpayable",
      "type": "function",
      "signature": "0x066e757a"
    },
    {
      "constant": false,
      "inputs": [
        {
          "name": "account",
          "type": "address"
        }
      ],
      "name": "redeemStamps",
      "outputs": [],
      "payable": false,
      "stateMutability": "nonpayable",
      "type": "function",
      "signature": "0x4c855c7e"
    }
  ],
  "bytecode": "0x608060405234801561001057600080fd5b50336000806101000a81548173ffffffffffffffffffffffffffffffffffffffff021916908373ffffffffffffffffffffffffffffffffffffffff16021790555061007f7321c8ac242bbd5e0510c413382a8a47f09b2b5bb6600361010e640100000000026401000000009004565b6100ad73c867e38d89221584c2d7bbe318ba4d4b494d81ef600061010e640100000000026401000000009004565b6100db73ee9dcaa1a9d0c6e09f00625090faa578b691ff83600261010e640100000000026401000000009004565b610109734c35f67c3c48d55396df99210b9ef3606b8dd0f6600861010e640100000000026401000000009004565b610277565b610116610247565b60408051908101604052808473ffffffffffffffffffffffffffffffffffffffff16815260200183815250905080600160008573ffffffffffffffffffffffffffffffffffffffff1673ffffffffffffffffffffffffffffffffffffffff16815260200190815260200160002060008201518160000160006101000a81548173ffffffffffffffffffffffffffffffffffffffff021916908373ffffffffffffffffffffffffffffffffffffffff160217905550602082015181600101559050507fb0706ef598fa4e9e7be86bc44c88f81557e98c8fc0904b373d6eb2daa7c493748383604051808373ffffffffffffffffffffffffffffffffffffffff1673ffffffffffffffffffffffffffffffffffffffff1681526020018281526020019250505060405180910390a1505050565b6040805190810160405280600073ffffffffffffffffffffffffffffffffffffffff168152602001600081525090565b6107f4806102866000396000f3fe60806040526004361061006d576000357c0100000000000000000000000000000000000000000000000000000000900463ffffffff168063066e757a14610072578063336989ae146100cd5780634c855c7e146101655780638da5cb5b146101b6578063dedf34f31461020d575b600080fd5b34801561007e57600080fd5b506100cb6004803603604081101561009557600080fd5b81019080803573ffffffffffffffffffffffffffffffffffffffff16906020019092919080359060200190929190505050610268565b005b3480156100d957600080fd5b5061011c600480360360208110156100f057600080fd5b81019080803573ffffffffffffffffffffffffffffffffffffffff16906020019092919050505061043c565b604051808373ffffffffffffffffffffffffffffffffffffffff1673ffffffffffffffffffffffffffffffffffffffff1681526020018281526020019250505060405180910390f35b34801561017157600080fd5b506101b46004803603602081101561018857600080fd5b81019080803573ffffffffffffffffffffffffffffffffffffffff169060200190929190505050610480565b005b3480156101c257600080fd5b506101cb61063a565b604051808273ffffffffffffffffffffffffffffffffffffffff1673ffffffffffffffffffffffffffffffffffffffff16815260200191505060405180910390f35b34801561021957600080fd5b506102666004803603604081101561023057600080fd5b81019080803573ffffffffffffffffffffffffffffffffffffffff1690602001909291908035906020019092919050505061065f565b005b610270610798565b600160008473ffffffffffffffffffffffffffffffffffffffff1673ffffffffffffffffffffffffffffffffffffffff1681526020019081526020016000206040805190810160405290816000820160009054906101000a900473ffffffffffffffffffffffffffffffffffffffff1673ffffffffffffffffffffffffffffffffffffffff1673ffffffffffffffffffffffffffffffffffffffff16815260200160018201548152505090508181602001818151019150818152505080600160008573ffffffffffffffffffffffffffffffffffffffff1673ffffffffffffffffffffffffffffffffffffffff16815260200190815260200160002060008201518160000160006101000a81548173ffffffffffffffffffffffffffffffffffffffff021916908373ffffffffffffffffffffffffffffffffffffffff160217905550602082015181600101559050507f85eb640bd9235e6b4fd035f4723cb8305a62054cdb7aaa06e8822876770482de83838360200151604051808473ffffffffffffffffffffffffffffffffffffffff1673ffffffffffffffffffffffffffffffffffffffff168152602001838152602001828152602001935050505060405180910390a1505050565b60016020528060005260406000206000915090508060000160009054906101000a900473ffffffffffffffffffffffffffffffffffffffff16908060010154905082565b610488610798565b600160008373ffffffffffffffffffffffffffffffffffffffff1673ffffffffffffffffffffffffffffffffffffffff1681526020019081526020016000206040805190810160405290816000820160009054906101000a900473ffffffffffffffffffffffffffffffffffffffff1673ffffffffffffffffffffffffffffffffffffffff1673ffffffffffffffffffffffffffffffffffffffff1681526020016001820154815250509050600081602001818152505080600160008473ffffffffffffffffffffffffffffffffffffffff1673ffffffffffffffffffffffffffffffffffffffff16815260200190815260200160002060008201518160000160006101000a81548173ffffffffffffffffffffffffffffffffffffffff021916908373ffffffffffffffffffffffffffffffffffffffff160217905550602082015181600101559050507f22232a1b171143fee8214203072f5951ee06201ad76fe75a0709d5846b4fc52482604051808273ffffffffffffffffffffffffffffffffffffffff1673ffffffffffffffffffffffffffffffffffffffff16815260200191505060405180910390a15050565b6000809054906101000a900473ffffffffffffffffffffffffffffffffffffffff1681565b610667610798565b60408051908101604052808473ffffffffffffffffffffffffffffffffffffffff16815260200183815250905080600160008573ffffffffffffffffffffffffffffffffffffffff1673ffffffffffffffffffffffffffffffffffffffff16815260200190815260200160002060008201518160000160006101000a81548173ffffffffffffffffffffffffffffffffffffffff021916908373ffffffffffffffffffffffffffffffffffffffff160217905550602082015181600101559050507fb0706ef598fa4e9e7be86bc44c88f81557e98c8fc0904b373d6eb2daa7c493748383604051808373ffffffffffffffffffffffffffffffffffffffff1673ffffffffffffffffffffffffffffffffffffffff1681526020018281526020019250505060405180910390a1505050565b6040805190810160405280600073ffffffffffffffffffffffffffffffffffffffff16815260200160008152509056fea165627a7a72305820d0afec701a060844b8b6b7f5afbef647ee4932aa852a1ee96d9dab273d340dae0029",
  "source": "pragma solidity ^0.5.0;\n\ncontract LoyaltyCard {\n    address public owner;\n\n    struct Customer {\n        address account;\n        uint256 balance;\n    }\n\n    mapping(address => Customer) public customers;\n\n    constructor() public {\n        owner = msg.sender;\n        addCustomer(0x21C8ac242Bbd5e0510c413382A8A47f09B2B5bB6, 3);\n        addCustomer(0xC867e38D89221584c2D7bbE318ba4D4b494D81ef, 0);\n        addCustomer(0xEe9dcaA1a9D0C6e09f00625090Faa578B691Ff83, 2);\n        addCustomer(0x4C35f67C3C48D55396Df99210b9eF3606b8Dd0f6, 8);\n    }\n\n    event CustomerAdded(address account, uint256 balance);\n\n    event BalanceIncreased(\n        address account,\n        uint256 stampIncrement,\n        uint256 newBalance\n    );\n\n    event StampsRedeemed(address account);\n\n    function addCustomer(address account, uint256 balance) public {\n        Customer memory newCustomer = Customer({\n            account: account,\n            balance: balance\n        });\n        customers[account] = newCustomer;\n        emit CustomerAdded(account, balance);\n    }\n\n    function addStamp(address account, uint256 stampIncrement) public {\n        Customer memory customer = customers[account];\n        customer.balance += stampIncrement;\n        customers[account] = customer;\n        emit BalanceIncreased(account, stampIncrement, customer.balance);\n    }\n\n    function redeemStamps(address account) public {\n        Customer memory customer = customers[account];\n        customer.balance = 0;\n        customers[account] = customer;\n        emit StampsRedeemed(account);\n    }\n}\n",
  "sourcePath": "/Users/raymond/Documents/Projects/blockloyalty/src/contracts/LoyaltyCard.sol",
  "compiler": {
    "name": "solc",
    "version": "0.5.0+commit.1d4f565a.Emscripten.clang"
  },
  "schemaVersion": "3.0.1",
  "updatedAt": "2021-06-29T02:13:10.554Z",
  "devdoc": {
    "methods": {}
  },
  "userdoc": {
    "methods": {}
  }
}