{
  "contractName": "LoyaltyCard",
  "abi": [
    {
      "constant": true,
      "inputs": [],
      "name": "owner",
      "outputs": [
        {
          "name": "",
          "type": "address"
        }
      ],
      "payable": false,
      "stateMutability": "view",
      "type": "function",
      "signature": "0x8da5cb5b"
    },
    {
      "constant": true,
      "inputs": [
        {
          "name": "",
          "type": "uint256"
        }
      ],
      "name": "customers",
      "outputs": [
        {
          "name": "id",
          "type": "uint256"
        },
        {
          "name": "balance",
          "type": "uint256"
        }
      ],
      "payable": false,
      "stateMutability": "view",
      "type": "function",
      "signature": "0xc0abda2a"
    },
    {
      "inputs": [],
      "payable": false,
      "stateMutability": "nonpayable",
      "type": "constructor",
      "signature": "constructor"
    },
    {
      "anonymous": false,
      "inputs": [
        {
          "indexed": false,
          "name": "id",
          "type": "uint256"
        },
        {
          "indexed": false,
          "name": "balance",
          "type": "uint256"
        }
      ],
      "name": "CustomerAdded",
      "type": "event",
      "signature": "0x023525e3f89ff4340a0dfc86e6a4cbd536cdd92b201262a5d5a1962269a49bc9"
    },
    {
      "constant": false,
      "inputs": [
        {
          "name": "id",
          "type": "uint256"
        },
        {
          "name": "balance",
          "type": "uint256"
        }
      ],
      "name": "addCustomer",
      "outputs": [],
      "payable": false,
      "stateMutability": "nonpayable",
      "type": "function",
      "signature": "0xa2f81b47"
    }
  ],
  "bytecode": "0x608060405234801561001057600080fd5b50336000806101000a81548173ffffffffffffffffffffffffffffffffffffffff021916908373ffffffffffffffffffffffffffffffffffffffff16021790555061006c6004600a610071640100000000026401000000009004565b610119565b6100796100ff565b6040805190810160405280848152602001838152509050806001600085815260200190815260200160002060008201518160000155602082015181600101559050507f023525e3f89ff4340a0dfc86e6a4cbd536cdd92b201262a5d5a1962269a49bc98383604051808381526020018281526020019250505060405180910390a1505050565b604080519081016040528060008152602001600081525090565b61026b806101286000396000f3fe608060405260043610610057576000357c0100000000000000000000000000000000000000000000000000000000900463ffffffff1680638da5cb5b1461005c578063a2f81b47146100b3578063c0abda2a146100f8575b600080fd5b34801561006857600080fd5b5061007161014e565b604051808273ffffffffffffffffffffffffffffffffffffffff1673ffffffffffffffffffffffffffffffffffffffff16815260200191505060405180910390f35b3480156100bf57600080fd5b506100f6600480360360408110156100d657600080fd5b810190808035906020019092919080359060200190929190505050610173565b005b34801561010457600080fd5b506101316004803603602081101561011b57600080fd5b8101908080359060200190929190505050610201565b604051808381526020018281526020019250505060405180910390f35b6000809054906101000a900473ffffffffffffffffffffffffffffffffffffffff1681565b61017b610225565b6040805190810160405280848152602001838152509050806001600085815260200190815260200160002060008201518160000155602082015181600101559050507f023525e3f89ff4340a0dfc86e6a4cbd536cdd92b201262a5d5a1962269a49bc98383604051808381526020018281526020019250505060405180910390a1505050565b60016020528060005260406000206000915090508060000154908060010154905082565b60408051908101604052806000815260200160008152509056fea165627a7a723058201b96f24b54e830a56165a49d2ac69bd4691d2a4e63fa54764174f0f31e14ab660029",
  "source": "pragma solidity ^0.5.0;\n\ncontract LoyaltyCard {\n    address public owner;\n\n    struct Customer {\n        uint256 id;\n        // address account;\n        uint256 balance;\n    }\n\n    mapping(uint256 => Customer) public customers;\n\n    constructor() public {\n        owner = msg.sender;\n        addCustomer(4, 10);\n    }\n\n    event CustomerAdded(uint256 id, uint256 balance);\n\n    function addCustomer(uint256 id, uint256 balance) public {\n        Customer memory newCustomer = Customer({id: id, balance: balance});\n        customers[id] = newCustomer;\n        emit CustomerAdded(id, balance);\n    }\n}\n",
  "sourcePath": "/Users/raymond/Documents/Projects/blockloyalty/src/contracts/LoyaltyCard.sol",
  "compiler": {
    "name": "solc",
    "version": "0.5.0+commit.1d4f565a.Emscripten.clang"
  },
  "schemaVersion": "3.0.1",
  "updatedAt": "2021-06-26T19:03:22.286Z",
  "devdoc": {
    "methods": {}
  },
  "userdoc": {
    "methods": {}
  }
}