{
  "contractName": "LoyaltyCard",
  "abi": [
    {
      "constant": true,
      "inputs": [],
      "name": "owner",
      "outputs": [
        {
          "name": "",
          "type": "address"
        }
      ],
      "payable": false,
      "stateMutability": "view",
      "type": "function"
    },
    {
      "constant": true,
      "inputs": [
        {
          "name": "",
          "type": "uint256"
        }
      ],
      "name": "customers",
      "outputs": [
        {
          "name": "id",
          "type": "uint256"
        },
        {
          "name": "account",
          "type": "address"
        },
        {
          "name": "balance",
          "type": "uint256"
        }
      ],
      "payable": false,
      "stateMutability": "view",
      "type": "function"
    },
    {
      "inputs": [],
      "payable": false,
      "stateMutability": "nonpayable",
      "type": "constructor"
    },
    {
      "anonymous": false,
      "inputs": [
        {
          "indexed": false,
          "name": "id",
          "type": "uint256"
        },
        {
          "indexed": false,
          "name": "account",
          "type": "address"
        },
        {
          "indexed": false,
          "name": "balance",
          "type": "uint256"
        }
      ],
      "name": "CustomerAdded",
      "type": "event"
    },
    {
      "constant": false,
      "inputs": [
        {
          "name": "id",
          "type": "uint256"
        },
        {
          "name": "account",
          "type": "address"
        },
        {
          "name": "balance",
          "type": "uint256"
        }
      ],
      "name": "addCustomer",
      "outputs": [],
      "payable": false,
      "stateMutability": "nonpayable",
      "type": "function"
    }
  ],
  "bytecode": "0x608060405234801561001057600080fd5b50336000806101000a81548173ffffffffffffffffffffffffffffffffffffffff021916908373ffffffffffffffffffffffffffffffffffffffff160217905550610081600473e04ef06a5652e224ba2e63507bbf474d396967d4600a610086640100000000026401000000009004565b6101e5565b61008e6101ad565b6060604051908101604052808581526020018473ffffffffffffffffffffffffffffffffffffffff16815260200183815250905080600160008681526020019081526020016000206000820151816000015560208201518160010160006101000a81548173ffffffffffffffffffffffffffffffffffffffff021916908373ffffffffffffffffffffffffffffffffffffffff160217905550604082015181600201559050507f30763895a09c3de2c0b2a6ff2ac46361aa60c317479f4e128d853aad656affe8848484604051808481526020018373ffffffffffffffffffffffffffffffffffffffff1673ffffffffffffffffffffffffffffffffffffffff168152602001828152602001935050505060405180910390a150505050565b60606040519081016040528060008152602001600073ffffffffffffffffffffffffffffffffffffffff168152602001600081525090565b61039b806101f46000396000f3fe608060405260043610610057576000357c0100000000000000000000000000000000000000000000000000000000900463ffffffff1680638da5cb5b1461005c578063c0abda2a146100b3578063dd7ff7071461013c575b600080fd5b34801561006857600080fd5b506100716101a1565b604051808273ffffffffffffffffffffffffffffffffffffffff1673ffffffffffffffffffffffffffffffffffffffff16815260200191505060405180910390f35b3480156100bf57600080fd5b506100ec600480360360208110156100d657600080fd5b81019080803590602001909291905050506101c6565b604051808481526020018373ffffffffffffffffffffffffffffffffffffffff1673ffffffffffffffffffffffffffffffffffffffff168152602001828152602001935050505060405180910390f35b34801561014857600080fd5b5061019f6004803603606081101561015f57600080fd5b8101908080359060200190929190803573ffffffffffffffffffffffffffffffffffffffff16906020019092919080359060200190929190505050610210565b005b6000809054906101000a900473ffffffffffffffffffffffffffffffffffffffff1681565b60016020528060005260406000206000915090508060000154908060010160009054906101000a900473ffffffffffffffffffffffffffffffffffffffff16908060020154905083565b610218610337565b6060604051908101604052808581526020018473ffffffffffffffffffffffffffffffffffffffff16815260200183815250905080600160008681526020019081526020016000206000820151816000015560208201518160010160006101000a81548173ffffffffffffffffffffffffffffffffffffffff021916908373ffffffffffffffffffffffffffffffffffffffff160217905550604082015181600201559050507f30763895a09c3de2c0b2a6ff2ac46361aa60c317479f4e128d853aad656affe8848484604051808481526020018373ffffffffffffffffffffffffffffffffffffffff1673ffffffffffffffffffffffffffffffffffffffff168152602001828152602001935050505060405180910390a150505050565b60606040519081016040528060008152602001600073ffffffffffffffffffffffffffffffffffffffff16815260200160008152509056fea165627a7a7230582017745ffbeb76917ff93cc3bebd0146b64f5db4b278ffcc9bc80adb70e43284290029",
  "source": "pragma solidity ^0.5.0;\n\ncontract LoyaltyCard {\n    address public owner;\n\n    struct Customer {\n        uint256 id;\n        address account;\n        uint256 balance;\n    }\n\n    mapping(uint256 => Customer) public customers;\n\n    constructor() public {\n        owner = msg.sender;\n        addCustomer(4, 0xe04eF06a5652E224Ba2E63507bbf474d396967d4, 10);\n    }\n\n    event CustomerAdded(uint256 id, address account, uint256 balance);\n\n    function addCustomer(\n        uint256 id,\n        address account,\n        uint256 balance\n    ) public {\n        Customer memory newCustomer = Customer({\n            id: id,\n            account: account,\n            balance: balance\n        });\n        customers[id] = newCustomer;\n        emit CustomerAdded(id, account, balance);\n    }\n}\n",
  "sourcePath": "/Users/raymond/Documents/Projects/blockloyalty/src/contracts/LoyaltyCard.sol",
  "compiler": {
    "name": "solc",
    "version": "0.5.0+commit.1d4f565a.Emscripten.clang"
  },
  "schemaVersion": "3.0.1",
  "updatedAt": "2021-06-26T19:25:49.878Z",
  "devdoc": {
    "methods": {}
  },
  "userdoc": {
    "methods": {}
  }
}